{
  "_format": "hh-sol-artifact-1",
  "contractName": "CryptoWallet",
  "sourceName": "contracts/CryptoWallet.sol",
  "abi": [
    {
      "inputs": [],
      "stateMutability": "nonpayable",
      "type": "constructor"
    },
    {
      "anonymous": false,
      "inputs": [
        {
          "indexed": false,
          "internalType": "address",
          "name": "useraddress",
          "type": "address"
        },
        {
          "indexed": false,
          "internalType": "string",
          "name": "message",
          "type": "string"
        }
      ],
      "name": "AlertMsg",
      "type": "event"
    },
    {
      "inputs": [],
      "name": "AccountBalance",
      "outputs": [
        {
          "internalType": "uint256",
          "name": "",
          "type": "uint256"
        }
      ],
      "stateMutability": "view",
      "type": "function"
    },
    {
      "inputs": [
        {
          "internalType": "address",
          "name": "",
          "type": "address"
        }
      ],
      "name": "Customer",
      "outputs": [
        {
          "internalType": "string",
          "name": "name",
          "type": "string"
        },
        {
          "internalType": "address",
          "name": "useraddress",
          "type": "address"
        },
        {
          "internalType": "uint256",
          "name": "saving_amount",
          "type": "uint256"
        }
      ],
      "stateMutability": "view",
      "type": "function"
    },
    {
      "inputs": [],
      "name": "DepositeAmount",
      "outputs": [],
      "stateMutability": "payable",
      "type": "function"
    },
    {
      "inputs": [
        {
          "internalType": "address",
          "name": "user",
          "type": "address"
        }
      ],
      "name": "GetAccount",
      "outputs": [
        {
          "components": [
            {
              "internalType": "string",
              "name": "name",
              "type": "string"
            },
            {
              "internalType": "address",
              "name": "useraddress",
              "type": "address"
            },
            {
              "internalType": "uint256",
              "name": "saving_amount",
              "type": "uint256"
            }
          ],
          "internalType": "struct User.UserDeatails",
          "name": "acc",
          "type": "tuple"
        }
      ],
      "stateMutability": "view",
      "type": "function"
    },
    {
      "inputs": [],
      "name": "GetContractBalance",
      "outputs": [
        {
          "internalType": "uint256",
          "name": "",
          "type": "uint256"
        }
      ],
      "stateMutability": "view",
      "type": "function"
    },
    {
      "inputs": [
        {
          "internalType": "address",
          "name": "user",
          "type": "address"
        },
        {
          "internalType": "string",
          "name": "name_",
          "type": "string"
        }
      ],
      "name": "OpeningAccount",
      "outputs": [],
      "stateMutability": "payable",
      "type": "function"
    },
    {
      "inputs": [
        {
          "internalType": "uint256",
          "name": "amount",
          "type": "uint256"
        }
      ],
      "name": "WithDraw",
      "outputs": [],
      "stateMutability": "payable",
      "type": "function"
    },
    {
      "inputs": [],
      "name": "owner",
      "outputs": [
        {
          "internalType": "address",
          "name": "",
          "type": "address"
        }
      ],
      "stateMutability": "view",
      "type": "function"
    },
    {
      "inputs": [
        {
          "internalType": "uint256",
          "name": "",
          "type": "uint256"
        }
      ],
      "name": "userarray",
      "outputs": [
        {
          "internalType": "address",
          "name": "",
          "type": "address"
        }
      ],
      "stateMutability": "view",
      "type": "function"
    },
    {
      "stateMutability": "payable",
      "type": "receive"
    }
  ],
  "bytecode": "0x608060405234801561001057600080fd5b5033600260006101000a81548173ffffffffffffffffffffffffffffffffffffffff021916908373ffffffffffffffffffffffffffffffffffffffff160217905550611872806100616000396000f3fe60806040526004361061008a5760003560e01c80638da5cb5b116100595780638da5cb5b14610147578063b27c51d514610172578063cbe159bb1461018e578063d3674148146101aa578063f6d0bf2f146101e757610091565b80633894d0b314610096578063409d25fd146100d557806370e7733e1461011257806377c3ef3d1461011c57610091565b3661009157005b600080fd5b3480156100a257600080fd5b506100bd60048036038101906100b89190610db3565b610212565b6040516100cc93929190610e98565b60405180910390f35b3480156100e157600080fd5b506100fc60048036038101906100f79190610f02565b6102e4565b6040516101099190610f2f565b60405180910390f35b61011a610323565b005b34801561012857600080fd5b50610131610531565b60405161013e9190610f4a565b60405180910390f35b34801561015357600080fd5b5061015c610550565b6040516101699190610f2f565b60405180910390f35b61018c6004803603810190610187919061109a565b610576565b005b6101a860048036038101906101a39190610f02565b61082c565b005b3480156101b657600080fd5b506101d160048036038101906101cc9190610db3565b610b1f565b6040516101de91906111ae565b60405180910390f35b3480156101f357600080fd5b506101fc610d02565b6040516102099190610f4a565b60405180910390f35b6000602052806000526040600020600091509050806000018054610235906111ff565b80601f0160208091040260200160405190810160405280929190818152602001828054610261906111ff565b80156102ae5780601f10610283576101008083540402835291602001916102ae565b820191906000526020600020905b81548152906001019060200180831161029157829003601f168201915b5050505050908060010160009054906101000a900473ffffffffffffffffffffffffffffffffffffffff16908060020154905083565b600181815481106102f457600080fd5b906000526020600020016000915054906101000a900473ffffffffffffffffffffffffffffffffffffffff1681565b600a34101561033157600080fd5b60003073ffffffffffffffffffffffffffffffffffffffff166108fc349081150290604051600060405180830381858888f19350505050158015610379573d6000803e3d6000fd5b50600034905060005b60018080549050610393919061125f565b8111610463573373ffffffffffffffffffffffffffffffffffffffff16600182815481106103c4576103c3611293565b5b9060005260206000200160009054906101000a900473ffffffffffffffffffffffffffffffffffffffff1673ffffffffffffffffffffffffffffffffffffffff1603610450576001818154811061041e5761041d611293565b5b9060005260206000200160009054906101000a900473ffffffffffffffffffffffffffffffffffffffff169250610463565b808061045b906112c2565b915050610382565b50806000808473ffffffffffffffffffffffffffffffffffffffff1673ffffffffffffffffffffffffffffffffffffffff168152602001908152602001600020600201546104b1919061130a565b6000808473ffffffffffffffffffffffffffffffffffffffff1673ffffffffffffffffffffffffffffffffffffffff168152602001908152602001600020600201819055507f844c2087bb7f3ef3b5cdbad919f68fb5be2647a6c9645593c60c0456e93dce2e8260405161052591906113b0565b60405180910390a15050565b60003373ffffffffffffffffffffffffffffffffffffffff1631905090565b600260009054906101000a900473ffffffffffffffffffffffffffffffffffffffff1681565b3373ffffffffffffffffffffffffffffffffffffffff166000803373ffffffffffffffffffffffffffffffffffffffff1673ffffffffffffffffffffffffffffffffffffffff16815260200190815260200160002060010160009054906101000a900473ffffffffffffffffffffffffffffffffffffffff1673ffffffffffffffffffffffffffffffffffffffff160361060f57600080fd5b600a341461061c57600080fd5b3073ffffffffffffffffffffffffffffffffffffffff166108fc349081150290604051600060405180830381858888f19350505050158015610662573d6000803e3d6000fd5b50600034905060405180606001604052808381526020018473ffffffffffffffffffffffffffffffffffffffff168152602001826000808773ffffffffffffffffffffffffffffffffffffffff1673ffffffffffffffffffffffffffffffffffffffff168152602001908152602001600020600201546106e2919061130a565b8152506000808573ffffffffffffffffffffffffffffffffffffffff1673ffffffffffffffffffffffffffffffffffffffff1681526020019081526020016000206000820151816000019081610738919061158a565b5060208201518160010160006101000a81548173ffffffffffffffffffffffffffffffffffffffff021916908373ffffffffffffffffffffffffffffffffffffffff160217905550604082015181600201559050506001839080600181540180825580915050600190039060005260206000200160009091909190916101000a81548173ffffffffffffffffffffffffffffffffffffffff021916908373ffffffffffffffffffffffffffffffffffffffff1602179055507f844c2087bb7f3ef3b5cdbad919f68fb5be2647a6c9645593c60c0456e93dce2e8360405161081f91906116ce565b60405180910390a1505050565b600080600090505b60018080549050610845919061125f565b8111610915573373ffffffffffffffffffffffffffffffffffffffff166001828154811061087657610875611293565b5b9060005260206000200160009054906101000a900473ffffffffffffffffffffffffffffffffffffffff1673ffffffffffffffffffffffffffffffffffffffff160361090257600181815481106108d0576108cf611293565b5b9060005260206000200160009054906101000a900473ffffffffffffffffffffffffffffffffffffffff169150610915565b808061090d906112c2565b915050610834565b506000808273ffffffffffffffffffffffffffffffffffffffff1673ffffffffffffffffffffffffffffffffffffffff1681526020019081526020016000206002015482111561096457600080fd5b816000808373ffffffffffffffffffffffffffffffffffffffff1673ffffffffffffffffffffffffffffffffffffffff168152602001908152602001600020600201546109b1919061125f565b6000808373ffffffffffffffffffffffffffffffffffffffff1673ffffffffffffffffffffffffffffffffffffffff1681526020019081526020016000206002018190555047821115610a0357600080fd5b60008247610a11919061125f565b90503073ffffffffffffffffffffffffffffffffffffffff166108fc829081150290604051600060405180830381858888f19350505050158015610a59573d6000803e3d6000fd5b507f844c2087bb7f3ef3b5cdbad919f68fb5be2647a6c9645593c60c0456e93dce2e30604051610a89919061176e565b60405180910390a18173ffffffffffffffffffffffffffffffffffffffff166108fc8247610ab7919061125f565b9081150290604051600060405180830381858888f19350505050158015610ae2573d6000803e3d6000fd5b507f844c2087bb7f3ef3b5cdbad919f68fb5be2647a6c9645593c60c0456e93dce2e82604051610b12919061180e565b60405180910390a1505050565b610b27610d0a565b8173ffffffffffffffffffffffffffffffffffffffff166000808473ffffffffffffffffffffffffffffffffffffffff1673ffffffffffffffffffffffffffffffffffffffff16815260200190815260200160002060010160009054906101000a900473ffffffffffffffffffffffffffffffffffffffff1673ffffffffffffffffffffffffffffffffffffffff1614610bc057600080fd5b6000808373ffffffffffffffffffffffffffffffffffffffff1673ffffffffffffffffffffffffffffffffffffffff168152602001908152602001600020604051806060016040529081600082018054610c19906111ff565b80601f0160208091040260200160405190810160405280929190818152602001828054610c45906111ff565b8015610c925780601f10610c6757610100808354040283529160200191610c92565b820191906000526020600020905b815481529060010190602001808311610c7557829003601f168201915b505050505081526020016001820160009054906101000a900473ffffffffffffffffffffffffffffffffffffffff1673ffffffffffffffffffffffffffffffffffffffff1673ffffffffffffffffffffffffffffffffffffffff1681526020016002820154815250509050919050565b600047905090565b604051806060016040528060608152602001600073ffffffffffffffffffffffffffffffffffffffff168152602001600081525090565b6000604051905090565b600080fd5b600080fd5b600073ffffffffffffffffffffffffffffffffffffffff82169050919050565b6000610d8082610d55565b9050919050565b610d9081610d75565b8114610d9b57600080fd5b50565b600081359050610dad81610d87565b92915050565b600060208284031215610dc957610dc8610d4b565b5b6000610dd784828501610d9e565b91505092915050565b600081519050919050565b600082825260208201905092915050565b60005b83811015610e1a578082015181840152602081019050610dff565b60008484015250505050565b6000601f19601f8301169050919050565b6000610e4282610de0565b610e4c8185610deb565b9350610e5c818560208601610dfc565b610e6581610e26565b840191505092915050565b610e7981610d75565b82525050565b6000819050919050565b610e9281610e7f565b82525050565b60006060820190508181036000830152610eb28186610e37565b9050610ec16020830185610e70565b610ece6040830184610e89565b949350505050565b610edf81610e7f565b8114610eea57600080fd5b50565b600081359050610efc81610ed6565b92915050565b600060208284031215610f1857610f17610d4b565b5b6000610f2684828501610eed565b91505092915050565b6000602082019050610f446000830184610e70565b92915050565b6000602082019050610f5f6000830184610e89565b92915050565b600080fd5b600080fd5b7f4e487b7100000000000000000000000000000000000000000000000000000000600052604160045260246000fd5b610fa782610e26565b810181811067ffffffffffffffff82111715610fc657610fc5610f6f565b5b80604052505050565b6000610fd9610d41565b9050610fe58282610f9e565b919050565b600067ffffffffffffffff82111561100557611004610f6f565b5b61100e82610e26565b9050602081019050919050565b82818337600083830152505050565b600061103d61103884610fea565b610fcf565b90508281526020810184848401111561105957611058610f6a565b5b61106484828561101b565b509392505050565b600082601f83011261108157611080610f65565b5b813561109184826020860161102a565b91505092915050565b600080604083850312156110b1576110b0610d4b565b5b60006110bf85828601610d9e565b925050602083013567ffffffffffffffff8111156110e0576110df610d50565b5b6110ec8582860161106c565b9150509250929050565b600082825260208201905092915050565b600061111282610de0565b61111c81856110f6565b935061112c818560208601610dfc565b61113581610e26565b840191505092915050565b61114981610d75565b82525050565b61115881610e7f565b82525050565b6000606083016000830151848203600086015261117b8282611107565b91505060208301516111906020860182611140565b5060408301516111a3604086018261114f565b508091505092915050565b600060208201905081810360008301526111c8818461115e565b905092915050565b7f4e487b7100000000000000000000000000000000000000000000000000000000600052602260045260246000fd5b6000600282049050600182168061121757607f821691505b60208210810361122a576112296111d0565b5b50919050565b7f4e487b7100000000000000000000000000000000000000000000000000000000600052601160045260246000fd5b600061126a82610e7f565b915061127583610e7f565b925082820390508181111561128d5761128c611230565b5b92915050565b7f4e487b7100000000000000000000000000000000000000000000000000000000600052603260045260246000fd5b60006112cd82610e7f565b91507fffffffffffffffffffffffffffffffffffffffffffffffffffffffffffffffff82036112ff576112fe611230565b5b600182019050919050565b600061131582610e7f565b915061132083610e7f565b925082820190508082111561133857611337611230565b5b92915050565b7f416d6f757420686173206265656e20637265646974656420737563636573736660008201527f756c6c792e2e2e00000000000000000000000000000000000000000000000000602082015250565b600061139a602783610deb565b91506113a58261133e565b604082019050919050565b60006040820190506113c56000830184610e70565b81810360208301526113d68161138d565b905092915050565b60008190508160005260206000209050919050565b60006020601f8301049050919050565b600082821b905092915050565b6000600883026114407fffffffffffffffffffffffffffffffffffffffffffffffffffffffffffffffff82611403565b61144a8683611403565b95508019841693508086168417925050509392505050565b6000819050919050565b600061148761148261147d84610e7f565b611462565b610e7f565b9050919050565b6000819050919050565b6114a18361146c565b6114b56114ad8261148e565b848454611410565b825550505050565b600090565b6114ca6114bd565b6114d5818484611498565b505050565b5b818110156114f9576114ee6000826114c2565b6001810190506114db565b5050565b601f82111561153e5761150f816113de565b611518846113f3565b81016020851015611527578190505b61153b611533856113f3565b8301826114da565b50505b505050565b600082821c905092915050565b600061156160001984600802611543565b1980831691505092915050565b600061157a8383611550565b9150826002028217905092915050565b61159382610de0565b67ffffffffffffffff8111156115ac576115ab610f6f565b5b6115b682546111ff565b6115c18282856114fd565b600060209050601f8311600181146115f457600084156115e2578287015190505b6115ec858261156e565b865550611654565b601f198416611602866113de565b60005b8281101561162a57848901518255600182019150602085019450602081019050611605565b868310156116475784890151611643601f891682611550565b8355505b6001600288020188555050505b505050505050565b7f41636f756e7420486173204265656e204372656174656420537563636573736660008201527f756c6c792e2e2e00000000000000000000000000000000000000000000000000602082015250565b60006116b8602783610deb565b91506116c38261165c565b604082019050919050565b60006040820190506116e36000830184610e70565b81810360208301526116f4816116ab565b905092915050565b7f416d6f756e7420686173206265656e2064656475637465642066726f6d20746860008201527f6520436f6e74726163742e2e2e00000000000000000000000000000000000000602082015250565b6000611758602d83610deb565b9150611763826116fc565b604082019050919050565b60006040820190506117836000830184610e70565b81810360208301526117948161174b565b905092915050565b7f416d6f756e74206861732073756363657366756c6c79206265656e207769746860008201527f647261776c20746f20796f7572206163636f756e742e2e2e0000000000000000602082015250565b60006117f8603883610deb565b91506118038261179c565b604082019050919050565b60006040820190506118236000830184610e70565b8181036020830152611834816117eb565b90509291505056fea26469706673582212204b3a36f7a643d2ce8eb6eaeb022e19acab6d92c0de584225fb9b8b9021094ec964736f6c63430008110033",
  "linkReferences": {},
  "deployedLinkReferences": {}
}